:020000041000EA
:10000000D0110020C1150010373D0010AD150010B3
:10001000AD150010AD150010AD150010000000006A
:100020000000000000000000000000007516001035
:10003000AD1500100000000021160010251F001053
:10004000CD170010CD170010CD170010CD170010E0
:10005000CD170010CD170010CD170010CD170010D0
:10006000CD170010CD170010CD170010CD170010C0
:10007000CD170010CD170010CD170010CD170010B0
:10008000CD170010CD170010CD170010CD170010A0
:10009000CD170010CD170010CD170010CD17001090
:1000A000CD170010CD170010CD170010CD17001080
:1000B000CD170010CD170010CD170010CD17001070
:1000C000CD170010CD170010CD170010CD17001060
:1000D000CD170010CD170010CD170010CD17001050
:1000E000CD170010CD170010CD170010CD17001040
:1000F000CD170010CD170010CD170010CD17001030
:10010000CD170010CD170010CD170010CD1700101F
:10011000CD170010CD170010CD170010CD1700100F
:10012000CD170010CD170010CD170010CD170010FF
:10013000CD170010CD170010CD170010CD170010EF
:10014000CD170010CD170010CD170010CD170010DF
:10015000CD170010CD170010CD170010CD170010CF
:10016000CD170010CD170010CD170010CD170010BF
:10017000CD170010CD170010CD170010CD170010AF
:10018000CD170010CD170010CD170010CD1700109F
:10019000CD170010CD170010CD170010CD1700108F
:1001A000CD170010CD170010CD170010CD1700107F
:1001B000CD170010CD170010CD170010CD1700106F
:1001C000CD170010CD170010CD170010CD1700105F
:1001D000CD170010CD170010CD170010CD1700104F
:1001E000CD170010CD170010CD170010CD1700103F
:1001F00053B94AB9002908BF00281CBF4FF0FF318E
:100200004FF0FF3000F00CB8ADF1080C6DE904CEF2
:1002100000F008F8DDF804E0DDE9022304B07047DF
:10022000704700BF2DE9F04786468C460846089E79
:10023000154674461946002B40F0C2808542B2FA3A
:1002400082F245D94AB1C2F1200300FA02FC2EFA2B
:1002500003F3954043EA0C0C94404FEA154EA8B2C4
:10026000BCFBFEF8230C0EFB18CC08FB00F943EA9C
:100270000C43994528D9EB1808F1FF3704D299456A
:1002800002D9A8F102072B44A3EB0903A4B2B3FBE4
:10029000FEFC0EFB1C330CFB00F044EA0344A042BE
:1002A00014D92C190CF1FF3304D2A04202D9ACF1BD
:1002B00002032C44241A43EA07401EB1D440002311
:1002C00034607360BDE8F0874746DDE76346F1E7D9
:1002D00092BB431B01214FEA154EAFB2B3FBFEFCAC
:1002E000200C0EFB1C330CFB07F840EA0343984537
:1002F00062D9EB180CF1FF3004D2984502D9ACF169
:1003000002002B44A3EB0803A4B2B3FBFEFC0EFBDC
:100310001C330CFB07F744EA0344A7424ED92C19BF
:100320000CF1FF3304D2A74202D9ACF102032C44F2
:10033000E41B43EA0040C0E7C2F1200320FA03F1C6
:10034000954090402EFA03F303434FEA154EAFB2A7
:10035000B1FBFEFC0EFB1C10190C0CFB07F841EA6C
:100360000041884504FA02F422D969180CF1FF30E3
:1003700004D2884502D9ACF102002944A1EB08015E
:100380009BB2B1FBFEFC0EFB1C110CFB07F743EA12
:1003900001439F420ED9EB180CF1FF3104D29F426A
:1003A00002D9ACF102012B44DB1B41EA004192E788
:1003B0006046E3E76146F7E76046A3E76346B7E7D1
:1003C000834206D916B9002108467BE7C6E900E05A
:1003D000F9E7B3FA83F78FB9834201D3724508D89E
:1003E000BEEB020460EB030301209C461EB9002112
:1003F00068E73846FAE7C6E9004CF8E7C7F1200C91
:10040000BB4022FA0CF41C432EFA0CF120FA0CF338
:10041000B84001434FEA14490EFA07F5B3FBF9F867
:100420001FFA84FE09FB18300B0C08FB0EFA43EA96
:1004300000439A4502FA07F240D9E31808F1FF3069
:1004400004D29A4502D9A8F102002344A3EB0A037F
:1004500089B2B3FBF9F809FB183308FB0EFE41EA39
:1004600003418E452CD9611808F1FF3304D28E4523
:1004700002D9A8F10203214443EA0040A0FB0298FC
:10048000A1EB0E014145CE46434602D306D14D4570
:1004900004D2B9EB020E68EB04030138002EA6D09B
:1004A000B5EB0E0261EB030101FA0CFC22FA07F333
:1004B0004CEA0303F940C6E9003198E74046C5E736
:1004C0004346D9E707B52148214C224D03F0A8F84F
:1004D0001F4803F01EF81F4803F01BF820460121B7
:1004E00003F003F82846012102F0FFFF03F028F88B
:1004F0002046012102F0F9FF2846002102F0F5FF15
:1005000003F01EF82046002102F0EFFF28460021EC
:1005100002F0EBFF03F014F82046002102F0E5FFA3
:100520000121284602F0E1FF03F00AF80A48836837
:100530001B68002BD2D00DF1070198470028CDD1C0
:100540009DF80710054803F06BF8C7E7EC4F001063
:100550000C4F0010044F0010844A0010F94F001097
:10056000014B1B68184700BF00000020014B1860BA
:10057000704700BF0000002030B585B004460D462E
:1005800010220021684604F0D8F902238DF80230C9
:100590002A46044B01932146684602F049FD05B006
:1005A00030BD00BF6105001080B505460E461746F8
:1005B000984602F0ABFA034604F02AFADFF81890E6
:1005C000044649F80030424630463946A84754F8B8
:1005D000090001F00FF800BF080000004FF0804351
:1005E0009A6802F46062B2F5206F32D014D8B2F586
:1005F000C06F31D0B2F5006F18D01A4B1A49B2F55E
:10060000806F18BF0B464FF080429268C2F382128F
:10061000D340164A13607047B2F5406F1ED0144B9A
:100620001149B2F5606F18BF0B46ECE7114B1A6821
:1006300012F030020BD0104B0B49102A18BF0B469A
:100640004FF080429268C2F38132D340DBE70B4B1C
:10065000F6E74FF4E103D6E7094BD4E74FF4004344
:10066000D1E700BF0000770100E1F505040000209C
:10067000C06878040068104080F0FA0220BCBE0018
:100680008038010038B54FF0E02318499C691A6999
:1006900022F480320A601A69D2075BBF6FF07F4490
:1006A00005225D695C615CBF9C611A61104B114A57
:1006B00019684FF00003A0FB010154BF4FF0807593
:1006C0000135FFF795FD0C4BB0FBF5F205FB120071
:1006D00084421A609FBF1A6801321A602D19074BB5
:1006E00094BF281A201A186038BD00BFB40100203A
:1006F0000400002040420F0008000020B801002044
:1007000010B50B4A0B4C11602268002A0DDC50B169
:10071000FFF7B8FF2368002BC1BF4FF0E022136939
:1007200043F002031361002010BD6FF00500FBE7EA
:10073000B0010020080000203F2808D90B4A4038AB
:10074000516AC0B2012383400B43536270471F2894
:100750004FF0804207D92038916CC0B2012383400A
:100760000B4393647047516AECE700BF006C104084
:100770003F2809D90E4940384B6AC0B20122824055
:1007800023EA02034B6270471F284FF0804308D9C9
:1007900020389A6CC0B20121814022EA01029A6499
:1007A00070475A6A0121814022EA01025A62704769
:1007B000006C1040072808B508D8022809D9043869
:1007C000032826D8DFE800F00814311DB0F5806F4B
:1007D00022D06FF0020008BD4FF080424FF0006061
:1007E000936843F400239360BDE8084002F03EBFE5
:1007F0004FF080424FF08050936843F48013936031
:10080000F2E7104803F062F90028E4D14FF000400D
:10081000EAE74FF00050E7E74FF080424FF080707A
:10082000936843F480339360DEE7074B9A6822F4C1
:1008300080329A609A6842F400329A604FF00070F9
:10084000D2E700BF144F0010006C104038B54FF0D5
:10085000804307289D6808D8022809D9043803284E
:1008600075D8DFE800F008337C4BB0F5806F58D0C6
:100870006FF0020453E04FF080439A68140318D5D8
:100880004FF08042936823F4606343F40063936005
:100890004FF4005002F0EAFE0446002876D04FF0F4
:1008A000804205F46065936823F460632B43936092
:1008B00009E09A6842F400229A604FF0006002F06A
:1008C000D5FE0028DCD06FF0090428E04FF080430B
:1008D0009A68D00207D54FF08042936823F4606392
:1008E00043F42063D3E79A6842F480129A604FF091
:1008F000805002F0BBFE0028EDD0E4E74FF000404E
:1009000002F0B4FE28B94FF08042936843F460636C
:10091000BDE70720FFF74EFF04460028F3D020462E
:1009200038BD9A68D10307D54FF08042936823F40D
:10093000606343F48063AAE79A6842F480329A6065
:100940004FF0807002F092FE0028EDD0BBE74FF030
:100950008042936823F4606343F4C06397E70D4BD0
:100960009A68920307D54FF08042936823F460633E
:1009700043F440638BE79A6842F400329A604FF088
:10098000007002F073FE0028EDD09CE7FFF726FE12
:10099000C5E700BF006C104010B50C4611461A4662
:1009A00040B9064800F08CF821460448BDE81040E4
:1009B00000F0E4B96FF0020010BD00BF0040064037
:1009C00040B929B14B1E012B04D8044800F0A2B84D
:1009D000084670476FF00200704700BF00400640B5
:1009E00010B9034802F09CBE6FF00200704700BFD0
:1009F0000040064010B9034802F09EBE6FF00200AE
:100A0000704700BF0040064010B9034802F09BBE8B
:100A10006FF00200704700BF00400640014B1868AD
:100A2000400870470400002010B9034802F092BE4D
:100A30006FF00200704700BF0040064010B9034845
:100A400000F09AB86FF00200704700BF0040064007
:100A500010B428B9886838B9054810BC02F0BCBE8B
:100A60006FF0020010BC70476FF01000FAE700BF93
:100A70000040064028B90B689B682BB9044800F079
:100A800045BA6FF0020070476FF01000704700BF6A
:100A90000040064010B9034800F074BA6FF002003D
:100AA000704700BF00400640024618B9014603489F
:100AB00000F096BA6FF00200704700BF0040064099
:100AC00010B50E4C041B18BF012463420C4840F8BB
:100AD00023200C4A0C4842F823106FF003035C43B8
:100AE000204402F0BEFD0948204402F0BAFD084847
:100AF000204402F0B6FD002010BD00BF00400640BB
:100B00001C02002018020020080200200C02002015
:100B1000BC01002038B5174D451B18BF4FF0FF35FD
:100B2000012904461AD183785A071FD4C378EBB938
:100B300090F83430D3B990F82930BBB12846FFF78C
:100B400073FF237843F08003237023781B06FCD5C2
:100B50000021284602F0BAFD002038BD0229FBD151
:100B6000037803F07F0303700121F2E76FF00600C2
:100B7000F3E700BF00400640F0B57E4D451B18BFAF
:100B80004FF0FF3511F0F00401F00F0650D1052EA3
:100B900043D8DFE806F0031D4242031D764907787B
:100BA00051F8251047F004074C1C64010770002E13
:100BB00043D0012946D8402C00F0978052D8202CF1
:100BC00000F0AA80302C6AD0102C2AD1002467E0D3
:100BD000694B53F82540037843F004036401037024
:100BE00001F00B0101291CD1634B53F825304BB3A5
:100BF000402C00F0B68000F2A780202C04D0302CCE
:100C000000F0AF80102C0CD1027802F0FE020270CE
:100C1000002202828282013B5EE0037843F00403FB
:100C20000370037803F0FB0303706FF002000FE022
:100C3000077847F0040707705EB94F4B53F825104B
:100C400001290CD9037803F0FB0303706FF00D004A
:100C5000F0BD042EC4D1484951F82510A9E74FF042
:100C6000FF33A8E7502C59D0602CDAD1047844F037
:100C700001040470D402C2F3475604F47F043443E1
:100C800044EAC264C2F3571202F47F422243026173
:100C9000DA43D20042F0040212BA42611BE001249E
:100CA000067800EB4404520152BA06F0FE060670C4
:100CB0002282DA43520192B242F010031B0243EA4D
:100CC00012239BB2A382437D43F00F034375C37D80
:100CD00043F00F03C3754B1C274A42F825300378B5
:100CE00003F0FB0303700020B2E70124067806F04E
:100CF000FE060670C2F34756520B46EA022600EB88
:100D00004402DC43C4F34753640B43EA0423B6B202
:100D10009BB216829382DEE70024E7E70478520153
:100D200044F0010452BA04700282DA43520192B2D2
:100D300042F010031B0243EA12234FF6FF749BB2EA
:100D400083824482C482C6E7502C02D0602C7FF498
:100D500068AF027842F00102027000220261426133
:100D600059E7027802F0FE02027000224282C2823B
:100D700051E700BF004006401402002070B5174E36
:100D8000861B18BF4FF0FF36022904460D4617D8C0
:100D9000D9B102213046FFF713FE237843F0040354
:100DA0002370237843F04003237094F8243043F0F9
:100DB000040384F82430237803F0FB03237008E055
:100DC0000429E6D06FF0020070BD01213046FFF724
:100DD000F7FD034B00209D55F6E700BF004006409D
:100DE000880400202DE9F84F99469DF828A0074671
:100DF00090460B46002900F08180002A7ED0BAF18F
:100E0000000F06D1028E92B2002A45D16FF0060083
:100E100040E03D4A14680126C4F3001204F00F00BC
:100E2000C4F3401114F0800FDA60586199604FEA02
:100E300014254FEA144234D06D05520305F0FF55D6
:100E400002F4FF121543240E45EA441545F000450F
:100E50001D60BAF1000F22D02B4C721C54F82640B2
:100E6000D6B2C4F3C4022A431A60C4F380025A60A3
:100E70000125C4F34002D3F804B01A61BBF1000F9E
:100E80003FD15A4602F02EFC1F4902464FF0FF0C9C
:100E9000934515DBBDE8F88FC4685646BCE7FC688F
:100EA000DFE7ED00C2F3421205F4FF651543C4F31A
:100EB000801C1D60C3F804C0C4F3C0420325DAE7F8
:100EC00035B9BAF1000F17D0731C51F82640DEB2C5
:100ED000D9454B4609DD4FEAC50E0CFA0EF3234007
:100EE00023FA0EF308F80B300346013505F003052D
:100EF0000BF1010B1846CBE7FC68E9E74FF0FF3038
:100F0000C8E70020C6E700BFC00100201B4BC31A82
:100F100018BF01232DE9F0410646C3F100080C4635
:100F200029B3174F6FF0030202FB03770121384604
:100F300002F089FB0546E8B9D4E90012237A40465D
:100F4000FFF786FD041E05DA384602F08AFB2046CC
:100F5000BDE8F0812A4634214046FFF755FD2A4678
:100F600034214046FFF73CFD04237370EFE74FF058
:100F7000FF34ECE76FF00604E9E700BF00400640ED
:100F800008020020134BC31A18BF012370B55E423C
:100F90000D46C1B1104A6FF00300012100FB032090
:100FA00002F051FB044688B90C4B02463921304609
:100FB00043F82650FFF728FD224639213046FFF737
:100FC0000FFD204670BD4FF0FF34FAE76FF00504C7
:100FD000F7E700BF004006400C020020100200208E
:100FE0002DE9FF41514FC71B18BF01277C42054621
:100FF000884616460DF10E010DF10F022046FFF74F
:10100000F9FC9DF80F209DF80E102046FFF7FCFC20
:101010009DF80E30B8F1000F05D026B19DF80F20D5
:1010200088F80030327098061AD5AB78D90710D5F9
:101030000421204602F04AFB3D4B53F824202AB1FC
:101040006FF0030000FB073002F00BFB6FF00800AD
:1010500051E0AB789A0703D50221204602F036FB17
:101060009DF80E30DB0609D5AB7E802B02D86B7E57
:10107000802B43D90321204602F028FB9DF80E3037
:101080005E070DD52B7958070AD5294B6FF0030061
:1010900000FB073002F0E5FA0021204602F01CFBBD
:1010A0009DF80E30190721D52B79DFF888801A07B3
:1010B00058F8240024D4C8B11F4B53F824306FF0E3
:1010C0000306D3E900121B7A7E43012000902846D4
:1010D000FFF788FE08EB060002F0C3FA1748304419
:1010E00002F0BFFA0121204602F0F6FA9DF80E3018
:1010F000DB0715D4002004B0BDE8F0810121BAE778
:101100000D4B53F824306FF00306D3E900127E43F1
:101110001B7A0028D9D100902846FFF763FEDDE74F
:101120000221204602F0D8FAE4E700BF0040064062
:1011300008020020BC010020100200200C02002048
:10114000024B53F8203003B11847704718020020B3
:10115000024B53F8203003B1184770471C0200209F
:1011600008B50B4B984207D10B2002F09EFA0920DC
:10117000FFF7E2FA002008BD064B984204D10C208C
:1011800002F093FA0A20F3E76FF00200F3E700BFE2
:101190000020044000300440164B10B504469C4229
:1011A000084603D003F580539C4216D105236361A2
:1011B000032A12D8DFE802F014021A180E49024678
:1011C000204602F0B8FB002809DD236843F4004301
:1011D000236023681B03FCD501E06FF0020010BD03
:1011E000064B19684908EAE70549E8E74FF4E101C9
:1011F000E5E700BF00200440C06878040400002038
:101200000000770108B50D4B984203D003F58053D9
:10121000984210D103290ED8DFE801F00207090B2C
:10122000002100F00DF8002008BD0121F9E702219E
:10123000F7E70321F5E76FF00200F5E7002004402F
:10124000164B984217D003F5805398420CBF0123E8
:101250004FF0FF33124AD35C5BB90368090413F4FF
:10126000004F01F44031036807D123F440330B43AE
:101270000360002070470023ECE723F40043036081
:10128000036823F440330B430360036843F40043D3
:10129000036003681B03FCD5EBE700BF002004409C
:1012A0008904002010B5054C217829B90448802212
:1012B00003F043FB01232370002010BD8C040020A9
:1012C00020020020014B1878704700BF8B040020DB
:1012D00030BFFFF7FDBF00BF2DE9F0410B4EDFF837
:1012E000308006EB0807CC1B0546324609492046EC
:1012F00003F015FBA01942460021083C03F01DFB3A
:101300006C6607F10800BDE8F08100BF0000000036
:1013100004000000044F0010054B5A699B689A4274
:101320001FBF044A536843F080535360704700BFA7
:101330005C04002000ED00E0134B9A6A12F0007F7D
:101340009A6A14BF1E201D2012F0807F9A6A18BF6F
:101350001F2012F4002F9A6A18BF212012F4802F48
:101360009A6A18BF222012F4003F9A6A18BF2320FD
:1013700012F4803F9A6A6FEA02426FEA12429A625E
:1013800018BF2420704700BF00ED00E010B5194BD6
:101390000246986A9C6A10F4805F14BF17201620DA
:1013A00014F4006F9C6A18BF1820A40509D5986B27
:1013B000986A000404D51AB19A6A22F400429A622B
:1013C00019200C4B9A6A12F4806F9A6A18BF1A207F
:1013D000D2050CD49B6A13F4005F18BF1C20054A89
:1013E000936A43F47F43936200230B7010BD1B206C
:1013F000F5E700BF00ED00E010B51C4B0246986A0F
:101400009C6A10F0100F14BF1120102014F0080F68
:101410009C6A18BF1220A40709D5586B986A000669
:1014200004D51AB19A6A22F080029A6213200F4BF7
:101430009A6A12F0010F9A6A18BF142012F0200F56
:101440009A6A18BF1520D40658BF9B6A074B9A6A40
:10145000920642BF5A6A22F400525A629A6A42F0D5
:10146000FF029A6200230B7010BD00BF00ED00E088
:10147000F0B5474B5B688BB00446C3F30803002507
:1014800085F31188BFF36F8F02F07F40B0F17F4F7B
:1014900011D102F00C0008280DD010074CBF0C46EB
:1014A00001250022033B8DF80720032B05D8DFE838
:1014B00003F02462665F2C46F3E700239DF80720C3
:1014C000CAB902AE04F1200720686168324603C23F
:1014D0000834BC421646F7D1099A002D53D0C2F306
:1014E000080121B96FEA52226FEA4222099202A949
:1014F000184602F016FC0BB0F0BD254BDA6A9107D6
:10150000DBD4DA6A002AD8DBDA6A5200D5D55A6908
:10151000A16942F480725A61BFF34F8FBFF36F8F9E
:101520005A6931F8021C22F480725A61BFF34F8F5E
:10153000BFF36F8F4DF60272914209D09A6AD2B210
:1015400042B10DF107010120FFF756FF0346B5E751
:101550002368B3E79A6A12F47F4F05D00DF10701B3
:101560000120FFF713FFF1E79B6AB3F5803FA4D397
:10157000FFF7E2FEEAE70DF107010020E4E70DF1D5
:1015800007010020EDE722F4FF7222F00102ADE72F
:1015900000ED00E0044B5A6942F010025A615A69AA
:1015A00022F008025A61704700ED00E0EFF3088076
:1015B000EFF3098101B57246FFF75AFF01BD00BF85
:1015C0000A4880F30888202080F3118808484FF4E7
:1015D0000061401880F30988EFF31480022108436A
:1015E00080F31488BFF36F8F00F08AF8D0110020C9
:1015F00090040020084B9B6883420BD1EFF30583D6
:1016000043B1064B5A6842F080525A605A6A22F43B
:1016100000425A6201F080BA5C04002000ED00E054
:1016200011498A684FF030001044EFF3098C80E8CC
:10163000F01F202080F31288BFF36F8F0B4F4FF005
:1016400000664A698A603E60506E094C2060906E68
:101650000023936680F3118802F1300090E8F01FB8
:101660008CF30988704700005C04002004ED00E062
:10167000A00200201EF0040F0CBFEFF30880EFF370
:101680000980816911F8021C0229FFD001B5724658
:1016900002F04DFB01BD00BF40B2002807DB044A49
:1016A0004109012300F01F00834042F821307047B8
:1016B00000E100E040B20028A8BF00F1604001F165
:1016C0000101B8BF064B4FEA4111ACBF00F56140C4
:1016D00000F00F00C9B2B4BF195480F8001370476E
:1016E00014ED00E0044B054A23F07F039360BFF341
:1016F0004F8FBFF36F8F70470000001000ED00E0C8
:1017000008B5FFF7EFFF0B4AD2F8883023F47003D7
:10171000C2F88830EFF3148323F0040383F31488B2
:10172000BFF36F8F00F064FD01F018FB00F042F88A
:1017300000F09EFD00ED00E042F8203C009B42F8E6
:101740001C3C0A49019B42F8183C029B42F8143C9D
:1017500021F001014FF0807342F8043C42F8081C6C
:101760000023203A02658366704700BFA905001078
:1017700000B5094B9860094B1546426E1A600E463B
:101780002C4686F309880020054B98472046002107
:1017900000220023034C20475C040020A00200200C
:1017A0004D3D0010A9050010014B10221A61704731
:1017B00000ED00E0044800232021C21801336C2B07
:1017C00082F80013F9D1704700E100E008B5EFF3AB
:1017D0000583064A103B02EBC30152F83300496807
:1017E0008847BDE80840FFF797BD00BFD44A001006
:1017F00008B5024B1B689847002008BDA4020020D2
:10180000034B044A1860937843F0020393707047C7
:10181000A40200200C00002008B50649064821F06B
:101820000701C1F1005202F5A03201F0BAFE00201A
:1018300008BD00BFD7110020A80200202DE9F04FFD
:101840000F4689B091461E46D0F808A06A4BD0F8E2
:1018500008809A4200F2CD80B8F83C40B8F83E309B
:1018600001341C44B8F840301C44002A00F0C18008
:10187000B6F57A7F80F0BD80836807A99B6A984798
:10188000002840F0B3804EB95C4B994535D85C4B8D
:1018900040F26B36994588BF4FF44876079B029318
:1018A00004FB09F4B3FBF4F4BAF838309C4238BFB7
:1018B0001C466FF0004304FB09FB0393B8F8423069
:1018C0009C421DDD0398FB88BA885B08934228BFC1
:1018D00013463B80BAF83020934204D9B8F83A2036
:1018E0009A4228BF1A466FF0004398423A8008BFD8
:1018F0006FF0850009B0BDE8F08F40F2EE26CDE72D
:10190000029BB3FBFBF30193DDE901230BFB1233D5
:101910005BBBBDF804200199B8F83C30B8F83EE054
:1019200005934FF47A757143B1FBF5F1BAF836506F
:10193000BAF834C00495511A89B20EEB0300A942DB
:10194000BAF8323080B213D9B8F840508D4228BF6F
:101950000D46511E491B89B288420BD2151A013D12
:10196000B8F84020ADB2AA420FD20134CB44A5E76B
:10197000049DEEE70CEB030080B288422DD9121AC9
:10198000013A95B2049AAA42EFD8B3EB500F4FEA4E
:10199000500203D2059B934228BF1346C21A92B24B
:1019A00096451CD2A0EB0E039BB272464FF47A719F
:1019B00000FB01100199B0FBF1F00399864234BF9E
:1019C000801B301A8142D0D97B80BA80FD803C8157
:1019D00000283FF478AF0390C7E70846D5E7944561
:1019E00082BFA0EB0C039BB26246DFE76FF00400FE
:1019F00080E76FF015007DE740420F0000350C00D6
:101A000020A10700F7B5154B53F8204023691F7C30
:101A1000042906D8DFE801F003191B1D1F0004226A
:101A20001A742669B568A3680DF103011B6A01AA3F
:101A3000204698479DF803108F4204D01DB1F368EB
:101A4000019A2046A84703B0F0BD0022E8E7012232
:101A5000E6E70222E4E70322E2E700BF2C040020CD
:101A60002DE9F8430D460979046908295DD82179E3
:101A700000295DD0217C03295DD0697911F00C0F1C
:101A80005CD104F12808404600F050FD06460028CD
:101A900057D104F114074FF0FF324FF0FF333846AF
:101AA00002F0E3F9EFF31183202282F31288BFF3EF
:101AB0006F8F089AA263099AE26383F31188BFF3D8
:101AC0006F8F6B79226C13F0010F2B681ABF23F014
:101AD000604343F00043C3F30A0313606B79C3F31D
:101AE000400353602B7953612B79174A606C0F2B9D
:101AF00028BF0F2305F10801D25C082A28BF08225D
:101B000084F8482004F1400902F009FF494600200A
:101B1000FEF7B0FF002802DA404600F0D3FC38465A
:101B200002F0BBF93046BDE8F8836FF01506F9E71F
:101B30006FF07206F6E76FF07106F3E76FF0850657
:101B4000F0E76FF00A06EDE7FC4F00102DE9F041D9
:101B500086B00023CDE9033346680469ADF814303C
:101B6000054604F1140002F0EAFD0122114604F1D9
:101B7000280002F0EBFD306840B9306A02F09BFDAE
:101B800048B96FF0120006B0BDE8F08102F093FD95
:101B90000028F2D1F5E7306A83681B6806F124015A
:101BA00013B96FF00400EEE7984707460028F8D114
:101BB000014602AA306B02F0FCFB0028E3DB029B2B
:101BC0003A461979186800F01FF90028DBDB042376
:101BD0002374F36928469847307E254B254A43F8FD
:101BE0002050FF2300930121234BFEF7D5FE002850
:101BF000C9DB6B68DA681B8A03A92846FFF71EFE5B
:101C00000028C0DB03A9284602F0BDF80028BADB93
:101C10003B46307E40F2FF721421FEF70FFF3B4639
:101C2000307E6FF060424421FEF708FF04F14C0360
:101C300004F58E72236404F168036364C4F8102110
:101C4000402304F59C7284F8483004F58878C4F881
:101C5000142184F81831AB683946DB682846984768
:101C6000002890D1307E4146FEF714FF8BE700BF7D
:101C70002C040020051A0010511D00102DE9F04F12
:101C8000076989B0D7F810416E46804610220021BE
:101C9000304602F052FE2368002BBBBF23F06043A6
:101CA0000093C3F30A030123B4BF8DF805300093FA
:101CB00063682BB19DF8053043F002038DF80530C1
:101CC000237D8DF804300F2B28BF0F231F4AD7F830
:101CD0001411D25C082A28BF082202A802F01FFEB5
:101CE0009DF8059019F0020516D13C4609F001094E
:101CF0000DF1100AD7F8A830EB40DB0707D594F8B0
:101D0000BC3003F00103B9F1000F08D04BB9013525
:101D1000052D04F11404EDD109B0BDE8F08F002BBE
:101D2000F5D1D4F8B420009B5340D4F8B820134226
:101D3000EDD196E80F00D4F8ACB08AE80F00514618
:101D4000D4F8B0204046D847E1E700BFFC4F001070
:101D5000054B53F8200009B902F0BDB9012901D1A2
:101D6000FFF78CBF704700BF2C0400208B68082B46
:101D700017D8DFE803F01B05080B0D10051305004D
:101D80000023002010E04FF4E103FAE7084BF8E7E6
:101D90004FF40043F5E74FF4FA53F2E74FF46123B1
:101DA000EFE700236FF0150013607047014BE8E781
:101DB0000000770180F0FA0208B5074802F07BFCCA
:101DC00038B10648FFF71CFD0448FEF7CFFB0020A2
:101DD00008BD6FF01200FBE7844A0010E11D0010FF
:101DE0000A2838B5074D044604D1AB680D215B685D
:101DF00028469847AB6803485B68E1B2984720469D
:101E000038BD00BF844A00102DE9F043DFF88C8014
:101E100085B0054600EBC1060127B54201D100207F
:101E200029E055F8083B55F8044CA20758BFC4F305
:101E30008002C3F3072954BF5200012207FA09F9AF
:101E4000E007CDE901898DF80D2017D4210717D4BB
:101E500003F00F0301338DF80C30C4F300138DF839
:101E60000E3001A8C4F381138DF80F3001F02EFE5F
:101E700040B16FF0850005B0BDE8F0830023EAE7CC
:101E80000123E8E72207C8D5A3060198494602D5F1
:101E900001F065FEC1E701F064FEBEE7008000408E
:101EA00010B54FF0E0230F499C691A6908689B69D7
:101EB0000D4902F4803234B993B903464AB90A682D
:101EC0001044C01A10BD002B08BF03460AB9A34234
:101ED000F5D90A6802440A604FF0E0221269EEE781
:101EE0000446F3E758040020540400200A4B202243
:101EF00083F82320094B42F210721A60084B00202D
:101F000018604FF0E02342F20F725A6198611A692B
:101F100042F007021A61704700ED00E0580400200B
:101F200054040020684620F007018D4619B5FFF7DC
:101F3000B7FF114B1149D3E900420868001942F17B
:101F40000002C3E900020E4A00230B60D2E90041FF
:101F500042F21073001BB0FBF3F043431B1941F135
:101F60000001C2E9003100F0D3FFFFF7D5F9BDE869
:101F700019408546704700BF3800002054040020F7
:101F8000300000202DE9F041DFF8DC8099B1421CDF
:101F90000BD14FF0E022136923F0010313614FF0DE
:101FA0007F43C8F80030BDE8F081D8F80060012810
:101FB00007DC00270BE0431CD8F80060F7D140F2A3
:101FC0008C6040F28D639842A8BF1846471EEFF31D
:101FD0001185202383F31288BFF36F8FFFF760FF13
:101FE000224C4FF0E0239969D4E90023801843F193
:101FF0000003C4E900031E4B00221A601D4B1A683F
:10200000831A2ED442F2107C0CFB073303F51C53C9
:102010000F33B3FBFCF7131A0CFB0733B3F5806FD8
:10202000154A38BF4FF48063934228BF13464FF0E0
:10203000E022C8F80030013B9069536100239361AE
:102040008142A1EB0003D4E9001238BF9B195B1851
:1020500042F10002C4E9003285F31188BFF36F8FAB
:10206000A1E74FF48063E2E7580400203800002025
:102070005404002030000020C0BCFF0038B5EFF34E
:102080001185202383F31288BFF36F8F084B1C68E0
:10209000084B1B68E41AFFF703FF85F31188BFF3B1
:1020A0006F8F42F210732044B0FBF3F038BD00BFD5
:1020B000380000203000002038B5EFF311852023D0
:1020C00083F31288BFF36F8F064B9C6802F006FB08
:1020D00085F31188BFF36F8F2046BDE83840FFF7C6
:1020E00089BA00BF5C0400200E4B70B553F8204045
:1020F0000D4E013053F82050A54200D870BD54F861
:10210000040B0028F8D0B04205D3084B984202D205
:1021100003689847F0E7037FDB07EDD402F0E1FAAC
:10212000EAE700BFD44F0010C44A0010D44A0010A0
:1021300070B52A4B2A4C2B4D012286B003201A7011
:10214000FFF7D2FF00F05CFF0420FFF7CDFF26462B
:10215000AE4204F1300410D300F0E4FB204C224ED8
:10216000AC4226D300F0F2FBFEF7ACF91F4A137B1A
:1021700023F00103137306B070BD54F80C3C0593B3
:1021800054F8103C049354F8143C039354F8183C4E
:10219000029354F81C3C019354F8203C009354E9FA
:1021A0000A2354E90C0100F0E7F954F8303C5E656D
:1021B000CDE7D4E90A23B3F1FF3F08BFB2F1FF3FF7
:1021C00005D052EA0301206803D100F07BFC3034D3
:1021D000C6E73146183000F00BFEF8E78D0400200A
:1021E000344E0010344E001031480010B000002072
:1021F00008B50348034A0021121A02F089FA08BD03
:10220000300000209004002070B5144E144D154984
:10221000702386B003FB006601220023CDE904236E
:102220000F22CDE902320193142303FB00554FF432
:10223000A072044602FB00110B4B0095304600F0E3
:102240009BF9737B2C7423F004037373074BEE60CC
:10225000013403EBC4236B6006B070BD4000002066
:102260005C040020900C002019470010900400200E
:10227000BFB50020FFF738FF264B83F30888264CB4
:10228000264F636943F4007363610025E02384F8FB
:102290002230E57725766576A576636A43F4E023F8
:1022A0006362FFF777F9FFF77FFA4FF0FF33A3621E
:1022B0001B48E36200F098F902F0FCF901F0C0F964
:1022C0000120FFF711FF0220FFF70EFF00F072FB65
:1022D000144B154C5C61154B059301231449009573
:1022E000CDE903534FF480623B46CDE901552046CA
:1022F00000F042F9627B064622F004022046627337
:1023000002F06AFA2846FFF77FFF3A463146204638
:10231000FFF72EFA900C002000ED00E031210010B4
:10232000200100205C040020B0000020515000106B
:10233000D00D00202DE9F341044617461E46EFF369
:102340001188202383F31288BFF36F8FC368334A49
:102350007BB180689168884219D057EA060318D18A
:1023600088F31188BFF36F8F6FF00F0002B0BDE8E4
:10237000F081916891F90E1021610133E360936857
:10238000A36088F31188BFF36F8F0020EEE7216907
:10239000F2E791F90E1090F90E309942A8BF194654
:1023A0006FF07E029142B8BF11468B422DDD02F0E4
:1023B000BEF90546CDE9007619482246414600F0AF
:1023C000F7F90028E1D0EFF31186202383F3128878
:1023D000BFF36F8FA068D0B1236821699C420AD0F7
:1023E0004BB193F90E309942A8BF19466FF07E03A6
:1023F0009942B8BF194602F09AF940B108483146EF
:1024000000F06AFA6FF00A00B0E70025D2E7002D6D
:10241000F4D186F31188BFF36F8FF3E75C040020DB
:102420008E040020F8B583680546002B3FD0234A70
:10243000926893423ED1C368012B03D9013BC3602C
:102440000020F8BDEFF31187202383F31288BFF338
:102450006F8F0169806802F06AF92C68A54207D184
:102460000023C5E9023387F31188BFF36F8FE7E7D5
:10247000002CF5D0D4E9003213605A60637B00264B
:1024800023F002036373C4E90066A66004F1180038
:1024900002F011FAAC6094F90E302B612046E6662A
:1024A00002F09AF90648394600F016FAC8E76FF0CC
:1024B0001500C6E74FF0FF30C3E700BF5C04002003
:1024C0008E04002070B5EFF31186202383F3128869
:1024D000BFF36F8F0468A0421AD0CCB1D4E90032A8
:1024E00013605A60637B002523F002036373C4E921
:1024F0000055A56004F1180002F0DDF92046E566FC
:1025000002F06AF931460848BDE8704000F0E4B9CD
:10251000D0E902329A4218BF0133836086F31188F2
:10252000BFF36F8F70BD00BF8E04002013B5EFF3B3
:102530001181202484F31288BFF36F8F846844B123
:10254000013C846081F31188BFF36F8F002002B0DB
:1025500010BD52EA030406D181F31188BFF36F8FD7
:102560006FF00F00F3E7CDE900230246014800F0C9
:102570001FF9ECE78E0400202DE9FF41984600F199
:102580005803D51DC0E916330E9B037325F00705CC
:102590000423002643730D440D9B83730F46C0E94B
:1025A000066629468660C6730446FEF795FE0C9BB8
:1025B000029307300B9B019320F007000A9B0093C6
:1025C0002D1A43462A4639462046FFF7B5F8054BF3
:1025D00066659B6803B11B6E2366284604B0BDE8A0
:1025E000F08100BF5C04002040F2011383810023CE
:1025F0000366014B986070475C040020094A9368A9
:102600006FF00A01D966084998664B6843F0805319
:102610004B60002383F31188BFF36F8F9368D86EEC
:10262000704700BF5C04002000ED00E070B590F939
:102630000D20437B002A36DBD90634D11B4C63F0D6
:102640007F032246437352F8183FE169934207D152
:10265000C0E900210860E06111E09942F8D01B68F0
:10266000002BF5D090F90E5093F90E60B542F4D0DE
:10267000AE42F2DD5968C0E9003108605860A569D2
:10268000954200D005B9E568A3685A7BD20604D10B
:10269000DA897F2A01D9AA6932B1AB4202D0284631
:1026A00000F004FB656170BD6361FCE75C04002021
:1026B00038B590F90D20437B002A014604DA03F077
:1026C0007F03437302F04EF80D4D2A46AB6852F873
:1026D000184F944200D004B9EC688B4207D05A7B63
:1026E000D20604D1DA897F2A01D9A2692AB1A3428C
:1026F00002D0204600F0DAFA23466B6138BD00BFF5
:102700005C040020B3F1FF3F08BFB2F1FF3F03D0EC
:102710000249183000F06CBB704700BF3148001010
:1027200070B590F90D20437B002A014604DA03F0CE
:102730007F03437302F016F84B7B1C4C63F07F035E
:1027400022464B7352F8183FE069934207D1C1E922
:1027500000200160E16111E09842F8D01B68002B75
:10276000F5D091F90E5093F90E60B542F4D0AE4217
:10277000F2DD5868C1E9003001605960A569A368BD
:10278000954200D005B9E5688B4207D05A7BD20646
:1027900004D1DA897F2A01D9AA692AB1AB4202D0D1
:1027A000284600F083FA2B46636170BD5C0400206C
:1027B000F8B50E4B0C4611460D4A98681060DDE9DD
:1027C0000667EFF31182202282F31288BFF36F8F26
:1027D0009D68284601F0D8FF284632463B46FFF761
:1027E00091FF2046BDE8F840FFF708BF5C040020D9
:1027F0007C040020F8B50446EFF31187202383F30F
:102800001288BFF36F8F437B03F01F02002A0CBFB7
:102810000126002649B239D103F07F03437301F04A
:10282000A1FF2C4D437B817363F07F032A464373E2
:1028300052F8183F934227D1E869C4E900200460A8
:10284000EC610FE09842F8D01B68002BF5D093F9AB
:102850000EC06145F6D08C45F4DD5968C4E90031FD
:102860000C605C60AC69944200D004B9EC68AB6861
:102870009C4202D0204600F019FA6C6187F311885F
:10288000BFF36F8F3046F8BDE869DEE79B071ED5C2
:10289000856801F067FF81732B689D4209D16B68E1
:1028A000C4E900531C606C60E8E76A689342F6D0A4
:1028B0001B68002BF3D093F90E209142F5D08A4289
:1028C000F3DD5A68C4E9003214605C60D6E78173B6
:1028D000D4E700BF5C04002049B9EFF3058030B9AC
:1028E000054B5A699B689A4201D0FFF787BE81F376
:1028F0001188BFF36F8F70475C040020034648B90E
:10290000EFF3058232B9064A51699268914201D0CB
:10291000FFF774BE83F31188BFF36F8F704700BF5A
:102920005C040020EFF31181202383F31288BFF3AE
:102930006F8F054B9A68D37B013BD37381F311886A
:10294000BFF36F8F704700BF5C04002070B5EFF3DA
:102950001186202383F31288BFF36F8F144DAB6869
:10296000DA7B0132DA732A4652F8184F944200D0CB
:1029700004B9EC685A7BD20604D1DA897F2A01D9DE
:10298000A2692AB1A34202D0204600F08FF9234663
:102990006B6186F31188BFF36F8FEFF311802023F3
:1029A00083F31288BFF36F8FBDE87040FFF7A6BFB7
:1029B0005C040020024B03F11802C3E906227047B1
:1029C0005C04002070B5EFF31186202383F3128896
:1029D000BFF36F8F1B4CA168E0690B68814214BF85
:1029E0001A46002249680B605960A368E1692AB958
:1029F000154AC3E900210B60E3610CE093F90E0076
:102A000092F90E50A84218D0854216DD5168C3E9EC
:102A100000210B605360A5690B4B9D4200D005B9A6
:102A2000E568A3689D4202D0284600F03FF9656141
:102A30003046BDE87040FFF7E1BD8A42D8D0126849
:102A4000D5E700BF5C04002074040020F8B550EA0C
:102A5000010306460C4603D1FFF7B4FF0020F8BD82
:102A6000EFF31187202383F31288BFF36F8F124D8A
:102A7000124BA8681860FFF71BFEA8681049234690
:102A80003246183000F0B4F9AA68537B43F00403CF
:102A9000537304463846FFF7B1FDAB68D3E90A2308
:102AA000B3F1004F08BF002AD8D101F02CFF201A43
:102AB00020EAE070D3E700BF5C0400207C04002023
:102AC0003148001038B50446EFF31185202383F315
:102AD0001288BFF36F8F437B5B070FD5183001F06F
:102AE000EAFE637B23F0040320466373FFF79EFD39
:102AF00029460548BDE83840FFF7EEBE85F311884A
:102B0000BFF36F8F38BD00BF8E040020014B986863
:102B1000704700BF5C0400202DE9F8430446077BA2
:102B2000EFF31185202383F31288BFF36F8F437B6C
:102B3000190705D585F31188BFF36F8FBDE8F883BA
:102B4000D90943F008025AD14273A36813B1204651
:102B500001F010FE04F1180001F0ADFEA66D04F1C5
:102B60005808B04511D04FF0000976B1304601F059
:102B700001FE06F1180001F09EFEC6F86C9030468A
:102B8000FFF754FDA66DB045EFD1DFF8B880D8F857
:102B900008309C423BD1EFF30589B9F1000918BF19
:102BA0004FF00109D8F81860274A964200D00EB9B4
:102BB000D8F80C60B34202D0304600F077F8C8F87D
:102BC0001460B9F1000F02D02048FFF70DFDD8F8CE
:102BD00008309C4231D1EFF3058373BB227BD207CF
:102BE00018D42846FFF70AFDFB07A7D5002383F377
:102BF0001188BFF36F8F0423184602DF9EE703F0AE
:102C00007F0343F00803437301F0ACFD9DE74FF0F1
:102C10000009C7E785F31188BFF36F8F83F311882D
:102C2000BFF36F8F0423184602DFEFF311802023D8
:102C300083F31288BFF36F8FD4E785F31188BFF356
:102C40006F8FD1E75C040020740400202001002075
:102C5000044BC01A044BC0105843044B01221A54B1
:102C6000704700BF90010020ABAAAAAA8E040020E2
:102C7000C3897F2B12D80A4B1B6863B1094B90F9AB
:102C80000E201B689A4209DB437BDB0606D1064B0C
:102C9000C31A18BF012303F0010070470023FAE7AD
:102CA0001C000020800400204000002070B50E4B66
:102CB0000E4C1E7C06EB460304EBC304054620467F
:102CC00001F0F9FD0A4B002228469A55FFF7D0FF84
:102CD00048B1084B08491A68013A2046D317BDE8A5
:102CE000704000F085B870BD5C04002090010020A9
:102CF0008E0400201C000020512C001038B5EFF38A
:102D00001185202383F31288BFF36F8F104B114A74
:102D10009C681068A04206D1FFF7C8FF85F31188B0
:102D2000BFF36F8F38BD00211B7C11600A4AD35C52
:102D3000002BF3D02046FFF79BFF0028EED0637BEB
:102D4000DB0602D12046FFF7EBFC2046E4E700BF9C
:102D50005C0400207C0400208E0400200748084A00
:102D6000084908B5121A01F0D5FC0748074A084976
:102D7000BDE80840121A01F0CDBC00BF00000020E1
:102D800030000020A45000100000002000000020AF
:102D9000A4500010024B1868984208BF00207047EA
:102DA00020000020034B1B680BB9FFF767B9002018
:102DB000704700BF8404002030B570B10B4B5B68D6
:102DC00098420AD0036843B1D3E90421D0E904450D
:102DD000121941EB0501C3E90421D0E90032136067
:102DE0005A600023C0E9003330BD00BF200000203E
:102DF000B3F1FF3F08BFB2F1FF3F2DE9F84F0446A2
:102E0000994615461F467AD08160EFF3118820233A
:102E100083F31288BFF36F8FB9F1000FDFF8E4A0DE
:102E200020DBFFF7BFFFDAE90027013549F1000990
:102E30002D1849EBE073C4E90453AD18064643EB83
:102E400007074FF00109FFF7A5FFDFF8BCE0DEF848
:102E500004A00346EBB9C4E900EACAF80040CEF882
:102E6000044028E0DAE900126FF001035B1A4FF02A
:102E7000FF3161EB02025B1B62EB0902012B72F175
:102E80000001BCBF01230022C0E904324FF0000959
:102E9000D9E7D3E9041CD4E904208A4270EB0C0B77
:102EA00024DA891A5A686CEB0000C3E90410C4E9FB
:102EB000003214605C60FFF76DFF84420ED1134B4B
:102EC0001B685BB9B9F1000F02D1FFF76BFF064633
:102ED000304601F0D9FC0021FFF754F888F311883F
:102EE000BFF36F8F28463946BDE8F88F521A60EB62
:102EF0000C009A45C4E90420ADD01B68AAE7002560
:102F00002F46EFE7A80100202000002084040020C5
:102F10002DE9F047EFF31185202383F31288BFF3E7
:102F20006F8FDFF8A490DFF8A480C9F80000FFF7E6
:102F300031FF00260027D9F80030D8E900ECD91776
:102F400050B1D0E90442A34271EB020A1CDAE41A40
:102F500062EB0102C0E9044213EB0E034FF00004E0
:102F60004CEB01012046C8E90031C9F8004001F0EE
:102F70008BFC2146FFF706F885F31188BFF36F8FAE
:102F8000BDE8F047FFF7BABE14EB0E024CEBE4735A
:102F9000C0E90467C8E90023FFF70EFF85F3118835
:102FA000BFF36F8F83689847EFF31185202383F376
:102FB0001288BFF36F8FD9F800301B1BC9F800309F
:102FC000FFF7E8FEB7E700BF84040020A801002057
:102FD00010B5EFF31184202383F31288BFF36F8FB2
:102FE000FFF7E0FE054A0346D2E90001181841EB5D
:102FF000E37184F31188BFF36F8F10BDA801002027
:10300000014800F00DBB00BF5650001038B5064C0B
:10301000064DAC4201D3002038BDD4E90112204650
:1030200001F075FC1434F4E730000020300000207B
:103030002DE9F04F8DB043680293837815469A07C7
:10304000804640F10D8100240E78002E00F00A81A8
:10305000252E0BD04B1C03930134029B4146304676
:1030600098470028C0F2F6800399EDE74E788B1C54
:10307000252E0393F0D00027B946BB46BBF11F0FA6
:1030800038D8A6F12003102B0AD8DFE803F02A096C
:1030900009300909092109090928092D09091F0011
:1030A000A6F13003092B33D92A2E37D11BF0400F5C
:1030B00055F8043B40F08280002BA7BF4BF0200B5B
:1030C0009946C3F100094BF0280B01E04BF0010BCE
:1030D000039B13F8016B0393002ECFD130E04BF02C
:1030E000020B4BF0040BF3E74BF0080BF0E74BF04F
:1030F000100BEDE7BBF17F0F19D8A6F13003092BB8
:10310000D2D81BF0400F03D00A2101FB0737DFE7BD
:103110000A2101FB09394BF0200BD9E72E2E06D1ED
:103120001BF0400F40F09E804BF0400BD0E76C2E20
:1031300031D02BD8682E36D06A2E3CD04C2E3AD0C7
:10314000002F46F02003B8BF2BF04002A3F1650129
:10315000BCBF1FFA82FB0027022901D9612B2FD1A6
:10316000073525F00705DFF8ACA2083507271BF067
:10317000080F66D00AEB070B56465E4563D1A4EBF9
:103180000A0A06EB0A02A9EB07096FE1742E9FD029
:103190007A2E9DD0D4E71BF0800F18BF4BF4007B34
:1031A0004BF0800B94E71BF4807F18BF4BF4007B3F
:1031B0004BF4807B8CE74BF4207B89E71F4687E745
:1031C000A6F16301122900F2F080DFE811F013008C
:1031D0004F00EE00EE00EE00EE004F00EE00EE00BD
:1031E000EE00EE00EE00FE00E900EE00EE001B0037
:1031F000EE00AF0055F8043B8DF8183001270DF1B3
:10320000180AB4E755F804AB834BBAF1000F08BFB6
:103210009A461BF0400F14BF39464FF0FF3150461D
:1032200001F093FB0746A2E7029B41462020984706
:1032300000280FDB013EB742F6D34C44A41BB14635
:1032400098E74E46F7E716F8010B029B4146984770
:10325000002892DA98F8023043F0040388F802302C
:103260004FF0FF3420460DB0BDE8F08F1BF0800F0B
:1032700034D01BF4007F2CD0073525F00705AA4673
:1032800069685AF8080B2BF010050029ADB237DA3F
:10329000404261EB410145F480650DF1180B0A23B2
:1032A0005A4601F05EFBA0EB0B0301936B0662D55F
:1032B000019B25F001019F4289B240F3A180002EBD
:1032C00000F0998015F0100240F09C80BB460D463E
:1032D00023E0AA465AF8040BC117D4E7AA461BF408
:1032E000807F5AF8041B01D10846F5E71BF4007FE4
:1032F00015BF48B208B241F3C01141F3C031C2E773
:1033000050EA0103C9D11BF0400FC6D0002FC4D131
:103310002BF0110295B2BB46019740F2064115EA27
:1033200001021CBF0BF1010B00222CE02BF010025C
:103330001FFA82FB0A231BF0800C49D01BF400719A
:103340001DBF073525F00705AA46AA461ABF5AF839
:10335000080B69685AF8040B50EA010545D12BF0B7
:1033600016051BF0400FADB242D0002F40D12BF01C
:10337000170295B2019715F0100248D0019B002E5C
:1033800042D103F1010B29075AD4EB0706D5D945E1
:103390006FDD0199A9EB0B035F18CB465B4649E053
:1033A0004BF0100B10237826C5E7782B04D1C6F11B
:1033B000780343F01003BEE7029B4146252098475F
:1033C0000028FFF647AF023447E608230026B2E79D
:1033D000AA461BF480715AF8040BBDD01BF400718F
:1033E0001ABFC0B2614680B2B6E72BF0060295B2B2
:1033F0000DF1180B54E725F01105ADB2BB468CE773
:103400000D46B8E73B460D4603F1020BBBE7DDF87E
:1034100004B082E79A50001093500010CDE90432B6
:103420004146029B202098470028FFF613AF049BDB
:10343000059A01339945F1DCA4EB0B01CC189B46AE
:103440000AB3029B4146302098470028FFF602AF9E
:103450008EB901342744019B391B994224DC1D4657
:103460005DBB019AA9EB0B092244554614469144D1
:1034700035E0019F92E7023441463046029B98476F
:103480000028E7DAE6E640F206410D42E2D015F008
:10349000020F14BF2B20202015F4806F04F10104CB
:1034A000414618BF2D20E9E7029B4146302098474E
:1034B000002804F10104CEDACCE606AB013D41461A
:1034C000585D029B98470028CADAC3E6029B414632
:1034D00020209847002804F10104FFF6BBAEA9EBB9
:1034E0000403002BF2DCBFE5704703460A46006880
:1034F0001979012303FA01F103691B68194218BF06
:1035000082F0010212B18368DB68184783681B6987
:10351000FBE770B4034600681979DB8843F4003296
:103520000569866813F0010F4FF001042B6804FA57
:1035300001F414BF2343A3432B60336870BC1847C6
:103540004FF47A70002101F077B900EBC100408898
:1035500040087047F8B50346FFF7F7FFB0FA80F070
:10356000C0F11F0003EB800CCA00DCF81060171DCF
:103570000C4606328DB256B9012101FA00F0D96825
:103580000143D960CCF81040DD539D52F8BDF100E5
:103590000431585AD85303EBC0009E52C5805D5287
:1035A000F4E7043A2DE9F041CC1D114424F007045E
:1035B00021F007010E1BF708B7FA87F2C2F12405C4
:1035C000AD004FF000080735C2F12002ED0804609D
:1035D0004146A760C4F80C80920004F1100001F08D
:1035E000ACF96B0043F00103638004EBC5027B1B65
:1035F0005900A4F800805180A21924F83550A2F88F
:103600000280A35304EBC70329465A8842F0010203
:103610005A802046BDE8F041FFF79CBF002070476C
:103620000FB407B504A951F8040B0191FCF7A4FFEE
:1036300003B05DF804EB04B070477047002070479A
:1036400000F000B87047034653E8002F32B943E852
:1036500000100028F8D1BFF35F8F70476FF00500AE
:103660007047BFF35F8F00230360704710B50021E0
:1036700004464FF47A70FDF743F84FF080429368A8
:103680002342FCD0002010BD4FF08042936803F429
:10369000E073984208D0936800F4E07023F4E0737C
:1036A00003439360FCF79ABF70471F2888BF2038F8
:1036B0004FF0010385BFC0B24FF080424FF080420F
:1036C000834096BF834053645360704718B9042900
:1036D00001D8FDF735BD704718B9022901D8FDF7AB
:1036E00037BD7047B2B9082819D9A9B100F00F0346
:1036F000093B062B0ED8DFE803F006060606041188
:103700000B002020704700F0070002308000704757
:1037100040207047002070470820704730207047D5
:1037200003790B43037190F8353002F00302134321
:1037300080F8353000207047C3780B7090F8343033
:1037400013700020704702F00302C17080F834202B
:103750000020704706293CD8037843F00403037027
:1037600090F8243003F0DF0380F82430037803F06E
:10377000FD03037090F8283003F0FC0380F8283034
:10378000062922D8DFE801F00E0A041015211C00DA
:1037900090F8243043F0200380F82430037803F0BD
:1037A000FB03037000207047037843F002030370AB
:1037B000F4E790F8283043F0010380F82830EDE773
:1037C00090F8283043F00303F7E7037803F0FB0396
:1037D00003706FF0020070472DE9F8430D46D1F8F1
:1037E0001490D1E9014106461746484622469846BC
:1037F000FFF778FF94B1002969D1EB68002B66D1FF
:103800002B69002B63D196F83230021D9A4261DA9F
:10381000003C18BF0124A401002207E00029ECD0DD
:1038200096F83230021D9A4254DA2022EB68224385
:10383000003B2C6818BF012342EA031209F00F096C
:10384000002C42EA09021EDA630B610942EA0162B6
:1038500003F47F43E400134304F47F04234343F061
:103860008003B3602C682B69E400003BE4B218BF0E
:10387000012344EA430401226B6803B91FBBB4600F
:103880000020BDE8F8832B69191E4FEA441318BFC6
:103890000121DBB2640143EAC10304F47F4444EA3A
:1038A000034414430322E7E70AB9B4601446984579
:1038B000C2BFF95CD500A94002F10102C8BF0C43A8
:1038C00002F0030201338342EEDBB460D9E76FF00C
:1038D0000300D6E76FF00600D3E738B504460D467F
:1038E000204600F01AF80028FAD029462046BDE804
:1038F000384000F00AB800F02DB800F039B800F0F8
:1039000047B800F07DB800F083B800F088B8FFF742
:10391000E4BF00F08DB800F098B800F0A3B800F054
:10392000A7B800F0B2B800F0B2B800F0B3B800F039
:10393000B6B800F0BAB8914210B5B1FBF2F3044644
:10394000104604D302FB1311B1EB520F00D901331F
:10395000236110BD053903299FBF036823F4406329
:1039600043EA8123036094BF00206FF00200704798
:1039700021B1012908D06FF002007047036823F4D9
:103980008053036000207047036843F48053F8E7D6
:10399000042932D8DFE801F0030915212900036862
:1039A00023F01003036000207047036843F0100306
:1039B0000360036823F020030360036823F04003DF
:1039C000F0E7036843F010030360036823F020036B
:1039D0000360036843F04003E4E7036843F0100327
:1039E0000360036843F02003E6E7036843F0100335
:1039F0000360036843F02003EAE76FF002007047BA
:103A0000436813F0030F14BF6FF0050000207047E8
:103A10004368DB0654BF006A6FF00C007047024633
:103A2000406810F080000CBF11626FF00B0070470F
:103A300010B503460020904200D110BD5C68E4063A
:103A4000FBD41C6A0C540130F5E710B50346002086
:103A5000904200D110BD5C682406FBD40C5C1C6253
:103A60000130F5E74068C0F30330C0F1080070474B
:103A70004B1E072B9FBF036823F00F031943016000
:103A800094BF00206FF002007047C0687047C160AB
:103A90000020704783680B43836000207047836871
:103AA00023EA01038360002070474068704738B5FF
:103AB0000446FDF7F7FBE307054602D50020FCF7B7
:103AC00057FE2046FDF7EEFB284438BD38B50446C6
:103AD00005680120FFF7EBFFFDF7F4FB012801D19A
:103AE000002038BD6268A17A284600F09BF80028C3
:103AF000F7D16268217A284600F0AEF80028F0D1AC
:103B0000637A012B11D0022B1AD01BBB2B6E62687B
:103B100023EA02032B66237A002BE1D06268E17A64
:103B20002846BDE8384000F0CEB82B6E62681343DB
:103B30002B66D5F8B83062681343C5F8B830EAE7A9
:103B40002B6E626813432B66D5F8B830626823EA9F
:103B50000203F2E76FF00200C3E700F014B800F0D0
:103B600015B800F015B800F015B800F019B800F05D
:103B70001BB800F04FB800F04FB800F04FB800F09D
:103B80004FB8FDF79FBB406A08407047C16170475E
:103B90000162704783695A400A405A408261704707
:103BA00083694B4083617047036804292FD8DFE89D
:103BB00001F0130326212A00DA6A41680A43DA6217
:103BC000DA6D416822EA0102DA659A6A416822EAFE
:103BD00001029A6200207047DA6A416822EA010213
:103BE000DA62DA6D416822EA0102DA659A6A4168AE
:103BF0000A43EEE7DA6A416822EA0102DFE7DA6A9D
:103C000041680A43ECE7DA6D41680A43EDE76FF07B
:103C10000200704781637047C163704781647047D9
:103C2000006C704770B504460E461546FFF7A9FFB5
:103C300001280BD026B1012E0AD06FF0020070BD12
:103C4000D4F8C03023EA0503C4F8C0300020F6E7FA
:103C5000D4F8C0302B43F7E770B504460E4615463E
:103C6000FFF78FFF012811D0236B2B43236365607F
:103C7000062E25D8DFE806F0040C0E12181D2100D0
:103C8000656165602567E567C4F88850002070BDF0
:103C90002561F6E7C4F88850E56708E0C4F8885065
:103CA000E567E566A560F1E7C4F88850A567256774
:103CB000F8E7C4F88850A567F3E7C4F88450EBE749
:103CC0006FF00200E3E770B504460E461546FFF7B5
:103CD00058FF01281AD0032E1ED8DFE806F01D0277
:103CE0000C19D4F8B0302B43C4F8B030D4F8B43049
:103CF00023EA050308E0D4F8B03023EA0503C4F84A
:103D0000B030D4F8B4302B43C4F8B430002070BDC8
:103D1000D4F8B0302B43F2E7D4F8B03023EA0503EF
:103D2000E2E7012801D1EFF30583FEF7C5B90146AB
:103D30000068FFF7F6BF08B5FDF7CAFABDE808400E
:103D4000FDF7EABA00210120FFF7EBBF61B662B6CA
:103D500080F31188BFF36F8F704708B572B60023E8
:103D600083F31188BFF36F8FFFF768FC10B1BFF3C7
:103D70004F8F30BF62B6BFF36F8F08BD08B5FDF738
:103D800037FD002008BDF0B4D0F808C082680C8868
:103D9000158E8368A54228D85D8FA54225D34D880E
:103DA000568EAE4221D89E8FAE421ED38E88958EFF
:103DB000B5421AD8DD8FB54217D3CD88D78EAF4222
:103DC00013D8B3F84070AF420FD30F89128FBA42A5
:103DD0000BD8B3F84230BB4207D3B44205D8AC424B
:103DE00003D8F0BCDCF8103018476FF08500F0BC49
:103DF000704703230B600020704710B504692AB197
:103E000043685B69987E10705B7E537009B1237CB8
:103E10000B70002010BD10B50369EFF31180202452
:103E200084F31288BFF36F8FC3E9021280F3118805
:103E3000BFF36F8F10BD0520704710B54368187E23
:103E40000C46FCF7EBFD2060002010BD08B50022F9
:103E50006B201146FDF72EFCBDE808406B20FDF7F6
:103E60001BBC4368187EFCF71FBEFEF763BA37B56C
:103E70000C460569836801A91B6898472B7933B9FB
:103E8000019834EA000005D12C6003B030BD6FF01A
:103E90000F00FAE76FF08500F7E7FEF7C3BA2DE9E8
:103EA000F0410569D0F8048005F114064FF0FF33A6
:103EB0004FF0FF323046FFF7D8FF2B7933BBD8F8ED
:103EC00000002F6860B907F00303032B98F818006F
:103ED00013D10621FCF7A8FD012304462B7106E04F
:103EE000836839461B68984704460028EBD0304663
:103EF000FFF7D3FF2046BDE8F081FA0701D5042182
:103F0000E8E7BB074CBF03210121E3E76FF077042B
:103F1000EDE7F8B50569476805F114064FF0FF3382
:103F20004FF0FF323046FFF7A0FF2B79C3B138685E
:103F300050B9387E0021FCF777FD041E0BDA3046BD
:103F4000FFF7ABFF2046F8BD83685B6898470446DF
:103F50000028EED0F3E704232B7400232B71EEE747
:103F60006FF07704EBE7F8B5436806695D690F46C3
:103F700069B3347974BB14364FF0FF324FF0FF331E
:103F80003046FFF772FF2B7843F004032B703B8918
:103F90003A88B988013B013AC3F3090343EA426313
:103FA000FA88013A920402F0FE7213437A880A44B6
:103FB000013A920202F47F321343EB612B7803F053
:103FC000FB0330462B70FFF768FF2046F8BD6FF00B
:103FD0001500FBE76FF00F00F8E72DE9F8431E46E8
:103FE0001B7A0469012B884617463AD804F1140954
:103FF0004FF0FF334FF0FF324846FFF736FFD4F85B
:10400000A830002523FA05F2D20706D5052D02D1E6
:104010006FF01B051FE00135F4E7052DF8D0EFF335
:10402000118C202383F31288BFF36F8F0122D4F801
:10403000A830AA401343C4F8A830142303FB054456
:10404000C4E92B8796E80700B43484E807008CF3B2
:104050001188BFF36F8F4846FFF71FFF2846BDE862
:10406000F8836FF08505F9E770B5042904690D46FA
:1040700030D804F114064FF0FF334FF0FF323046D2
:10408000FFF7F3FED4F8A830EB40DB0704D430464A
:10409000BDE87040FFF701BFEFF31181202383F3E8
:1040A0001288BFF36F8F0122D4F8A830AA4023EA08
:1040B0000203C4F8A830142303FB05440023C4E919
:1040C0002B33C4E92D33C4F8BC3081F31188BFF31E
:1040D0006F8FDCE770BD10B50469A36B23B1E26B91
:1040E00098470023C4E90E3304F12800BDE81040CE
:1040F000FEF7E8B908B50B68012B07D0022B09D0F1
:104100005BB90879FCF718FB002008BD486820302F
:10411000C0B2F7E748684030FAE76FF01500F4E7FF
:1041200008B50B68012B07D0022B09D05BB90879C1
:10413000FCF71EFB002008BD48682030C0B2F7E73E
:1041400048684030FAE76FF01500F4E708B504203E
:10415000FCF730FB0620FCF72DFB0420FCF776FB78
:104160000020FFF791FA002008BD10B503695868D8
:10417000F8B1884219D19C6808685860A14200D102
:104180009860002008602AB15A680A609A685960ED
:1041900002B99960002010E0814206D108682060D1
:1041A00098688142EDD19C60EBE7044600680028E6
:1041B000F2D1002AE8D16FF0150010BD416888687F
:1041C00030B183681B68103103B118476FF0570096
:1041D00070471FB5446860680190012000FA01F142
:1041E000B2F5001F02910ED16068FFF7C4FC64684D
:1041F0002046FFF7C4FC029901402046FFF7BDFCB2
:10420000002004B010BDB2F5800F05D0B2F1A07F40
:104210001CD06FF01500F4E7B3F1007F02D1032149
:1042200001A80AE0B3F1806F01D10146F8E7B3F1CC
:10423000C06FEED104210DEB0100FFF798FCE3689D
:10424000984702996068FFF794FCD9E7B3F1007FC3
:1042500001D10021E4E7B3F1806FE8D10221DFE76B
:1042600008B543685868FFF780FC002008BD08B512
:1042700043685868FFF775FC002008BD08B543681F
:104280005868FFF76CFC002008BD08B54368586803
:10429000FFF769FC002008BD10B543680C4658685C
:1042A0004FF0FF31FFF759FC2060002010BD2DE9D1
:1042B000FF4195074768144605D56FF085063046DF
:1042C00004B0BDE8F0810123E0067A6803FA01F545
:1042D00006D4A10630D4660502D4C4F3C0235B0023
:1042E00014F40038CDE901258DF80D3026D00123D6
:1042F0008DF80C3004F4C063B3F5806FC4F3002272
:1043000023D0B3F5C06F22D0A3F500714B424B41CF
:1043100001A88DF80E208DF80F30FFF7D7FB064669
:104320000028CAD1B8F1000FC9D0620311D578684E
:104330002946FFF716FCC2E70223D1E7E0034CBF92
:104340008DF80C80ADF80C80D4E70223E0E703235E
:10435000DEE72303B3D578682946FFF700FCAEE714
:1043600008B5002218201146FDF7A4F9BDE8084061
:104370001820FDF791B9F8B54568076906466868E1
:10438000FFF7FDFB014604466868FFF7F6FB796816
:1043900009B10D6801B9F8BD8A68224002D04B68A6
:1043A000304698471DB12B6829461D46F2E72B463B
:1043B000FAE730B5036813600579046804EBC504B7
:1043C000A34202D36FF0010030BD5C798C4201D072
:1043D0000833F0E70020F7E702690B46D2E9040151
:1043E00083E803000020704743681B680246986812
:1043F00010F060001FBF1369D86880F08000C0F320
:10440000C010704743681B680246986810F010009F
:104410001FBF1369D86880F01000C0F30010704708
:104420000369986800F0500070470369C3E90012FF
:10443000704708B543681868FFF773FA02468300AF
:1044400003F00400910748BF40F00200130748BF83
:1044500040F0010008BD38B5446805692068FFF7E1
:1044600060FAA8602068FFF764FAE860A96820682D
:10447000FFF759FA012038BDF8B5466807690446C8
:104480003068FFF74EFA3B68054613B1796820465D
:10449000984730682946BDE8F840FFF744BA4368BA
:1044A0000B211868FFF743BA436810211868FFF71B
:1044B0003EBA436860211868FFF739BA43680B2198
:1044C0001868FFF732BA436810211868FFF72DBA51
:1044D00038B54368044660211868FFF726FAEFF301
:1044E0001185202383F31288BFF36F8F2046FFF7D7
:1044F000C3FF85F31188BFF36F8F38BD08B54368DC
:104500001868FFF7FEF9063018BF012008BD38B55E
:1045100045682868FFF7FDF9044618B92868102196
:10452000FFF701FA204638BD43681868FFF7F3B972
:10453000F8B5056947682B7D3E680C4609798B42C2
:104540000ED0042948D8DFE801F0043103444400C8
:1045500001213046FFF7D3F900283ADB23792B7588
:1045600063796A7D9A4209D0012B21D1002130461E
:10457000FFF7C3F900282CDB63796B75A179AB7D5C
:104580008B4207D005313046FFF7B5F9002820DB14
:10459000A379AB75E379EA7D9A4201D0CBB9EB758B
:1045A00021682B698B4207D10020F8BD0321D0E799
:1045B000032B0ED10121DAE77A69042A28BFFF22F2
:1045C000D2B23046FCF7E8FD002802DB23682B61FD
:1045D000EAE76FF08500E8E76FF01500E5E743686C
:1045E0001868FFF794B910B5436818680C46FFF7D0
:1045F0008AF90028AABF20704FF0FF30002010BDBC
:1046000008B500220E201146FDF754F8BDE8084019
:104610000E20FDF741B8F7B5456806462F68A86833
:1046200000F049F800283FD03846FCF799FD0446D1
:10463000002836D1A86883681B6805F10C01002B9F
:1046400035D09847044660BB6969042928BFFF211B
:10465000C9B23846FCF7D6FD044610BB014601AA94
:104660006868FFF7A6FE041E1BDB019B0022197978
:104670001868FDF7C9FB044698B905F118013046E2
:10468000FFF756FF044660B901213846FFF747F9A6
:10469000044630B950213846FFF745F92B6A3046B9
:1046A0009847204603B0F0BD6FF01204F9E76FF0B1
:1046B0005704F6E7704740B1C368587810F001001E
:1046C0001EBF1878B0FA80F040097047EFF31183ED
:1046D000202383F31288BFF36F8FFEE708B5FFF73F
:1046E000F5FF10B54369044633B90020E2685378FA
:1046F00043F00103537010BD98470028F5D00028FF
:10470000B8BF4042E368FF28A8BFFF201870EDE75C
:1047100000F013B900F003B908B52024EFF31183BA
:1047200084F31288BFF36F8FFFF717FBF6E790F95A
:104730000E308B4201D0FEF75DB800207047034673
:104740000020C3E90200C3E9003370473AB18A424E
:1047500005D3C0E90212C0E90000002070476FF0E5
:1047600015007047D0E9003213605A600023C0E999
:104770000033704708B5FFF7F5FF437B23F00203D2
:1047800043730023836008BD38B504460D46FDF72A
:104790008FFF637B43F002036373E5B1A5602B6871
:1047A0009D4209D16B68C4E900531C606C6012E043
:1047B0006A689A42F6D01B68002BF3D094F90E2059
:1047C00093F90E108A42F3D09142F1DD5A68C4E9A0
:1047D000003214605C6038BD10B5EFF31184202303
:1047E00083F31288BFF36F8FFDF720FF84F31188E6
:1047F000BFF36F8F10BD10B50146EFF31184202376
:1048000083F31288BFF36F8F437B13F0280F0AD115
:1048100083680BB1FFF7AEFF4B7B23F004034B73B0
:104820000846FDF703FF84F31188BFF36F8F10BDB7
:1048300001211838FFF7DFBF38B504460D46FEF7F3
:1048400005F9B5F1FF3F08BFB4F1FF3F034620462D
:1048500014D013F109004FEAE37141F100010A2875
:1048600071F100030BD36FF00A0383424FF004038E
:104870008B4106D30A220023FBF7BAFC38BD002087
:10488000FCE76FF00040F9E708B50246FEF782FA50
:1048900070B1D0E904319B1A61EBE272B3F1004FC1
:1048A00072F1000104DA002AACBF1846002008BDEE
:1048B0006FF00040FBE738B50246EFF31185202387
:1048C00083F31288BFF36F8F0368CBB1FEF762FAF0
:1048D00004461046FEF770FA00224FF0004384426F
:1048E000C0E9042306D1FEF75DFAFFF7CDFF0021F2
:1048F000FDF748FB002085F31188BFF36F8F38BDAB
:104900006FF01500F7E708B5FEF762FB08BD10B4BD
:1049100000F10C04C0E9034410BCFEF742BE0A4497
:10492000914200F1FF3300D1704710B511F8014BEF
:1049300003F8014F9142F9D110BD0244034693425E
:1049400000D1704703F8011BF9E710B50246014496
:104950008A42134603D01C780132002CF8D1181A71
:1049600010BDF0B5C3F137070446FFB203F01F03D3
:104970001046082BE6B233D0102B3ED06508A408B1
:1049800044EA817445EAC1752D194FEA910242EB60
:104990005102290941EA02716D1842EB1212290AEB
:1049A00041EA02616D1842EB1222290C41EA0241F0
:1049B0006D1842EB1242AD1842F10002EC0844EAD5
:1049C0004274D10804EB8402A6EB4205EDB2092D36
:1049D0000CD90134A5F10A0541F10001EDB212E054
:1049E000E40844EA417406F00705C908303554EA82
:1049F000010200F8015BBCD1F0BD240944EA017456
:104A000006F00F050909092D84BFED19EDB2EDE798
:0C4A10000148006870470000A002002070
:084A1C0008B8FF7F0100000053
:104A2400444A0010C84A0010644A0010844A001026
:104A3400CC4A0010C44A0010D04A0010A44A001006
:104A440019500010000000009C4E00102A000020A5
:104A5400000000004D4100100000000000000000B4
:104A640033500010744F0010784E00102C000020BA
:104A740030040020BD4100100000000000000000D0
:104A840041500010904F0010B84E00102E0000202E
:104A94003C04002017460010000000000000000045
:104AA4000C500010204F0010344E0010280000203D
:104AB400B40200204D1B00100000000000000000A4
:104AC400ED1E00100D300010B91D00101918001053
:104AD40000000000453D001000000000453D0010AE
:104AE40000000000453D001000000000453D00109E
:104AF40000000000453D001000000000453D00108E
:104B040000000000453D001000000000453D00107D
:104B140000000000453D001000000000453D00106D
:104B240000000000453D001000000000453D00105D
:104B340000000000453D001000000000453D00104D
:104B4400844A00107944001000000000453D001024
:104B540000000000453D001000000000453D00102D
:104B640000000000453D001000000000453D00101D
:104B740000000000453D001000000000453D00100D
:104B840000000000453D001000000000453D0010FD
:104B9400644A00107743001000000000453D0010F7
:104BA40000000000453D001000000000453D0010DD
:104BB40000000000453D001000000000453D0010CD
:104BC40000000000453D001000000000453D0010BD
:104BD40000000000453D001000000000453D0010AD
:104BE40000000000453D001000000000453D00109D
:104BF40000000000453D001000000000453D00108D
:104C040000000000453D001000000000453D00107C
:104C140000000000453D001000000000453D00106C
:104C240000000000453D001000000000453D00105C
:104C340000000000453D001000000000453D00104C
:104C440000000000453D001000000000453D00103C
:104C540000000000453D001000000000453D00102C
:104C640000000000453D001000000000453D00101C
:104C740000000000453D001000000000453D00100C
:104C840000000000453D001000000000453D0010FC
:104C940000000000453D001000000000453D0010EC
:104CA40000000000453D001000000000453D0010DC
:104CB40000000000453D001000000000453D0010CC
:104CC40000000000453D001000000000453D0010BC
:104CD40000000000453D001000000000453D0010AC
:104CE40000000000453D001000000000453D00109C
:104CF40000000000453D001000000000453D00108C
:104D040000000000453D001000000000453D00107B
:104D140000000000453D001000000000453D00106B
:104D240000000000453D001000000000453D00105B
:104D340000000000453D001000000000453D00104B
:104D440000000000453D001000000000453D00103B
:104D540000000000453D001000000000453D00102B
:104D640000000000453D001000000000453D00101B
:104D740000000000453D001000000000453D00100B
:104D840000000000453D001000000000453D0010FB
:104D940000000000453D001000000000453D0010EB
:104DA40000000000453D001000000000453D0010DB
:104DB40000000000453D001000000000453D0010CB
:104DC40000000000453D001000000000453D0010BB
:104DD40000000000453D001000000000453D0010AB
:104DE40000000000453D001000000000453D00109B
:104DF40000000000453D001000000000453D00108B
:104E040000000000453D001000000000453D00107A
:104E140000000000453D001000000000453D00106A
:104E240000000000453D0010A44A0010633E00103D
:104E3400F33D00109F3E0010133F00106F3E001022
:104E4400673F0010611A0010DB3F0010694000103A
:104E5400FB3D0010173E00103B3E0010373E001093
:104E64000100000001000100010004000000100026
:044E740008004000F2
:104E7800AF420010994200108B4200107D42001092
:104E88006F42001061420010D34100106B410010C6
:044E98000000000016
:104E9C0021410010F5400010000000006D1D0010B5
:0C4EAC00000000000000000000000000FA
:104EB800E7450010DF45001033440010314500106D
:104EC800D9430010294500100F450010D1440010A7
:104ED800B3440010E9430010C7440010A94400106F
:104EE800FD44001005440010BD4400109F4400100C
:0C4EF80021440010574400102B4400100F
:104F0400644A00100F000000644A00100E00000004
:104F14000080004040000000050000000000000088
:104F24000000000040420F0020A1070052030000CF
:104F340000400640000000004D3E0010444A0010AE
:104F4400010000000B00000000000000544F00109E
:104F54005C4F001001000000644F001002000000CC
:104F6400020600000000000002090000000000002A
:104F7400FFFFFFFF00800040444A0010614300101F
:104F840000000000000000000000000000200440B9
:104F9400B44F0010444A0010000000000900000053
:104FA4000000000000C201000001030001460010DF
:104FB400BC4F001001000000C44F001002000000AC
:104FC400010A000000000000010B000000000000C6
:104FD400244A0010244A0010384A00103C4A0010A9
:104FE400444A0010444A001048656C6C6F20576FA7
:104FF400726C6421002563000001020304050607A6
:10500400080C10141820304063616E403430303680
:105014003430303000636C6F636B2D636F6E747269
:105024006F6C6C6572403430303030303030006733
:1050340070696F403430303038303030007365720E
:1050440069616C403430303432303030006D616925
:105054006E002A2A2A20426F6F74696E67205A658F
:1050640070687972204F53206275696C64207634BD
:105074002E322E302D7263312D39362D673365393A
:10508400333462633235353362202A2A2A0A0028EF
:105094006E756C6C29002A666C6F61742A000000BE
:1050A4001D36001000E1F505FFFFFFFF00000000C2
:1050B4007D3D00100000000000000000C80000005A
:0850C400200000202000002064
:0850CC000000000000000000DC
:0450D40015E015E0EE
:04000005100015C111
:00000001FF
